:0400000007EF00F016
:10000800448266ED02F0D8EF04F086EC04F0ADEC23
:1000180004F0070E1A6E000E1B6E7F0E1C6E000E8B
:1000280059EC03F0000ECAEC04F0270E216EE70E1F
:10003800226E7F0E236E000EB6EC03F0280E216EA2
:10004800F20E226E7F0E236E020EB6EC03F038EC31
:1000580004F00F501010D8A449D081D1010E436E7E
:10006800000E3E6E000E3D6E3DC03FF03EC040F0BB
:100078003FC041F040C042F0040E1A6E000E1B6EE5
:100088007F0E1C6E040E59EC03F03AD03FC039F0D5
:1000980040C03AF03DC03BF03EC03CF041C037F0B4
:1000A80042C038F0020E436E040E1A6E000E1B6E2C
:1000B8007F0E1C6E040E59EC03F022D0000E426E27
:1000C800000E416E41C03DF042C03EF03DC03FF0E1
:1000D8003EC040F0000E436E040E1A6E000E1B6EFA
:1000E8007F0E1C6E040E59EC03F00AD04350000A30
:1000F800D8B4B4D7010AD8B4C9D7030AD8B4DED75C
:1001080080B0FED71A0E366EF80EE82EFED7362EC1
:10011800FCD700D024D12E0E216E000E236E000EC7
:10012800226E040EBEEC01F0340E216E000E236E1A
:10013800000E226E040EBEEC01F03A0E216EFD0E8A
:10014800226E7F0E236E040EB6EC03F0400E216E75
:10015800000E236E000E226E040EBEEC01F0460E59
:10016800216E000E236E000E226E040EBEEC01F00E
:100178004C0E216EFB0E226E7F0E236E040EB6EC23
:1001880003F0520E216E000E236E000E226E040E36
:10019800BEEC01F05CD7405017E10A0E3F5CD8B0C6
:1001A80013D02E0E216E000E236E000E226E040E4A
:1001B800BEEC01F0340E216E3FC022F040C023F0A7
:1001C800040EBEEC01F009D02E0E216E3FC022F0C5
:1001D80040C023F0040EBEEC01F03A0E216EFD0E75
:1001E800226E7F0E236E040EB6EC03F03E5017E12C
:1001F8000A0E3D5CD8B013D0400E216E000E236E5F
:10020800000E226E040EBEEC01F0460E216E3DC0BB
:1002180022F03EC023F0040EBEEC01F029D00A0EF5
:100228003D183E10D8A41BD03F504010D8A417D07A
:1002380041504210D8A413D0040E1A6E000E1B6E43
:100248007F0E1C6E040E59EC03F0400E216E3DC06B
:1002580022F03EC023F0040EBEEC01F009D0400E9F
:10026800216E3DC022F03EC023F0040EBEEC01F02A
:100278004C0E216EFB0E226E7F0E236E040EB6EC22
:1002880003F0520E216E41C022F042C023F0040E4A
:10029800BEEC01F0DCD63ABE06D03A5017E10A0EA1
:1002A800395CD8B013D02E0E216E000E236E000ECE
:1002B800226E040EBEEC01F0340E216E39C022F01D
:1002C8003AC023F0040EBEEC01F009D02E0E216EC8
:1002D80039C022F03AC023F0040EBEEC01F03A0E09
:1002E800216EFD0E226E7F0E236E040EB6EC03F017
:1002F8003CBE06D03C5017E10A0E3B5CD8B013D088
:10030800400E216E000E236E000E226E040EBEEC0F
:1003180001F0460E216E3BC022F03CC023F0040ED3
:10032800BEEC01F009D0400E216E3BC022F03CC06B
:1003380023F0040EBEEC01F04C0E216EFB0E226E73
:100348007F0E236E040EB6EC03F0520E216E37C0FA
:1003580022F038C023F0040EBEEC01F078D64350EA
:10036800000AD8B4D8D6010AD8B415D7030AD8B425
:1003780092D76DD62F6E23BE06D023500DE10A0EFC
:10038800225CD8B009D021C01AF02250300F1B6E61
:100398002F5025EC03F01200000E316E010E306E66
:1003A80022C032F023C033F010D032C00FF033C077
:1003B80010F0000E126E0A0E116EABEC02F00FC0B8
:1003C80032F010C033F0304A312A33BE06D03350F1
:1003D800ECE10A0E325CD8B0E8D7000E356E010E9B
:1003E800346E000E2C6E000E2B6E10D034C00FF041
:1003F80035C010F0000E126E0A0E116E9AEC04F061
:100408000FC034F010C035F02B4A2C2AFF0E246E92
:10041800FF0E256E30C026F031C027F02450262666
:100428002550272226502B5C2C50800A286E2750F6
:10043800800A2858D8A0DAD7000E2E6E000E2D6E2E
:1004480036D022C00FF023C010F034C011F035C0F0
:1004580012F0ABEC02F00FC029F010C02AF021C056
:100468001AF02950300F1B6E2F5025EC03F022C0D4
:100478000FF023C010F034C011F035C012F0EDECCD
:1004880002F00FC022F010C023F0050E212634C060
:100498000FF035C010F0000E126E0A0E116EABECA4
:1004A80002F00FC034F010C035F02D4A2E2A30501B
:1004B8002D5C2E50800A246E3150800A2458D8B002
:1004C8001200BFD70600FACF01F0FBCF02F0E9CF48
:1004D80003F0EACF04F0E1CF05F0E2CF06F0D9CF80
:1004E80007F0DACF08F0F3CF09F0F4CF0AF0F6CF2F
:1004F8000BF0F7CF0CF0F8CF0DF0F5CF0EF0D5BE1E
:10050800F2A407D01BEC04F0C30ED76E4F0ED66EC4
:10051800F2940EC0F5FF0DC0F8FF0CC0F7FF0BC03A
:10052800F6FF0AC0F4FF09C0F3FF08C0DAFF07C0EE
:10053800D9FF06C0E2FF05C0E1FF04C0EAFF03C01F
:10054800E9FF02C0FBFF01C0FAFF44921100000E50
:10055800146E12AE06D0116C121ED8B0122A010EFB
:10056800146E10AE06D00F6C101ED8B0102A010EF3
:10057800141A000E166E000E156E11501210D8B413
:100588001CD0010E136E04D0D89011361236132ADF
:1005980012AEFAD7D8901536163611500F5C125095
:1005A8001058D8A005D011500F5E1250105A15805F
:1005B800D89012321132132EEDD71450D8B404D07B
:1005C800156C161ED8B0162A15C00FF016C010F0FC
:1005D8001200000E146E10AE06D00F6C101ED8B0AC
:1005E800102A010E146E12AE04D0116C121ED8B06F
:1005F800122A11501210D8B418D0010E136E04D05C
:10060800D89011361236132A12AEFAD711500F5C51
:1006180012501058D8A004D011500F5E1250105A22
:10062800D89012321132132EF1D71450D8B404D006
:100638000F6C101ED8B0102A0FC00FF010C010F0A9
:1006480012001C6E000E206E000E1F6E20BE06D01B
:1006580020502AE1050E1F5CD8B01200E00E1B24C2
:100668000F6E106AFF0E1022000E126E050E116E2C
:100678009AEC04F01F500F2620501022F30E0F247E
:10068800F66E7D0E1020F76E0800F5CF1DF01A509B
:100698001F241E6E1EC014F01DC015F01C5088ECDF
:1006A80003F01F4A202AD2D71200206E20C021F062
:1006B800226A1CD01BC023F0246A09D023C014F07E
:1006C800000E156E215088EC03F0234A242A1C5092
:1006D8001D6E1E6A23501D5C1E50800A1F6E24501A
:1006E800800A1F58D8B0EAD7214A222A1A501D6E0C
:1006F8001E6A21501D5C1E50800A1F6E2250800AFF
:100708001F58D8A01200D6D7166E400E146004D019
:10071800000E186E010E03D0000E186E020E176E32
:1007280017C019F01650BCEC04F01450FEEC03F09E
:1007380019506EEC04F0000E936E1904D8B4819031
:10074800020E1918D8B481928196818400F08188AC
:1007580000F015C083FF000E956E00F0819881802F
:1007680081821200266E000E286E000E276E16D0AB
:1007780021C01AF027502224246E28502320256EE9
:1007880024C0F6FF25C0F7FF0800F5CF1BF0265060
:1007980025EC03F0060E2126274A282A22C00FF04E
:1007A80023C010F0DFEC03F00F50275C10502858DE
:1007B800D8B01200DDD70FC013F010C014F002D06B
:1007C800134A142A13C0F6FF14C0F7FF0800F550A7
:1007D8000009D8A4F5D70FC011F010C012F0111EEF
:1007E800121E114A122A135011240F6E145012208F
:1007F800106E1200136E400E13600CD0010E116EB5
:100808001350400953EC04F0020E116E400E53ECE5
:1008180004F01200010E116E7F0E53EC04F0020E6C
:10082800116E1350C00F400953EC04F012004250EF
:1008380007E1090E415CD8B003D0414A422A1200B0
:10084800000E426E000E416E3E5007E13B0E3D5CCD
:10085800D8B003D03D4A3E2A1200000E3E6E000E6C
:100868003D6E3F4A402A120080A014D01A0E116E25
:10087800F80EE82EFED7112EFCD700D080A005D0A8
:10088800000E106E010E0F6E1200000E106E000E9C
:100898000F6E1200000E106E000E0F6E1200126E18
:1008A80011506EEC04F0000E936E1104D8B48190D0
:1008B800020E1118D8B481928196819400F0818833
:1008C80000F012C083FF000E956E00F081988180C1
:1008D80081821200106E9568000E936E1004D8B4D1
:1008E8008190020E1018D8B481928186819400F00C
:1008F800818800F083CF0FF081980FBEF9D78180EF
:10090800818212000F0EC16E000E956E95CF93FF77
:100918009268810ED56E800ED06EE00EF26E840E57
:10092800F16EC30ED76E4F0ED66E12000F50110225
:10093800F3CF13F0F4CF14F00F501202F350142633
:1009480010501102F350142613C00FF014C010F009
:100958001200818A010E116E3F0E53EC04F0020E54
:10096800116E3F0E53EC04F0000ECAEC04F01200B6
:10097800136E010E116E1350B80953EC04F0020EF9
:10098800116E1350B80953EC04F01200136E010EE7
:10099800116E1350C00953EC04F0020E116E13507F
:1009A800C00953EC04F0120000EE3DF0070EEE6AA9
:1009B800E806FDE144904492000EF86E000109EF4C
:0209C80000F03D
:107DF20000000000000000005F0000000700070014
:107E0200147F147F14242A7F2A12231308646236F3
:107E1200495522500005030000001C224100004188
:107E2200221C00082A1C2A0808083E0808005030B4
:107E3200000008080808080030300000201008047C
:107E4200023E5149453E00427F400042615149464F
:107E52002141454B311814127F1027454545393CC5
:107E62004A494930017109050336494949360649EB
:107E720049291E003636000000563600000008145C
:107E8200224114141414144122140800020151094D
:107E920006324979413E7E1111117E7F49494936A8
:107EA2003E414141227F4141221C7F494949417F54
:107EB200090901013E414151327F0808087F004112
:107EC2007F41002040413F017F081422417F404012
:107ED20040407F0204027F7F0408107F3E414141FF
:107EE2003E7F090909063E4151215E7F0919294653
:107EF200464949493101017F01013F4040403F1F4E
:107F02002040201F7F2018207F631408146303047D
:107F1200780403615149454300007F41410204084E
:107F2200102041417F000004020102044040404011
:107F320040000102040020545454787F48444438DD
:107F42003844444420384444487F38545454180830
:107F52007E090102081454543C7F0804047800444A
:107F62007D40002040443D00007F10284400417FB6
:107F720040007C041804787C0804047838444444A3
:107F8200387C14141408081414187C7C080404089F
:107F92004854545420043F4440203C4040207C1C20
:107FA2002040201C3C4030403C44281028440C50C7
:107FB20050503C4464544C44000836410000007F59
:107FC2000000004136080008082A1C08081C2A087C
:107FD200080800AA00080038383800000000000035
:107FE200000000000043524F4E4F4D455452450091
:0E7FF200206D6D3A73732E64002E003A00006D
:020000040030CA
:0E000000210C3F1EFF8181FF0FC00FE00F405B
:00000001FF
