:040000000BEF00F012
:100008005182FACF01F0FBCF02F017ED03F05EEF5B
:1000180005F02F6E23BE06D023500DE10A0E225C98
:10002800D8B009D021C01AF02250300F1B6E2F50C3
:10003800D4EC03F01200000E316E010E306E22C0B7
:1000480032F023C033F010D032C00FF033C010F0BC
:10005800000E126E0A0E116E5AEC03F00FC032F049
:1000680010C033F0304A312A33BE06D03350ECE1A9
:100078000A0E325CD8B0E8D7000E356E010E346E29
:10008800000E2C6E000E2B6E10D034C00FF035C051
:1000980010F0000E126E0A0E116EFDEC04F00FC087
:1000A80034F010C035F02B4A2C2AFF0E246EFF0EB8
:1000B800256E30C026F031C027F024502626255062
:1000C800272226502B5C2C50800A286E2750800A45
:1000D8002858D8A0DAD7000E2E6E000E2D6E36D016
:1000E80022C00FF023C010F034C011F035C012F058
:1000F8005AEC03F00FC029F010C02AF021C01AF002
:100108002950300F1B6E2F50D4EC03F022C00FF093
:1001180023C010F034C011F035C012F09CEC03F08D
:100128000FC022F010C023F0050E212634C00FF0B6
:1001380035C010F0000E126E0A0E116E5AEC03F064
:100148000FC034F010C035F02D4A2E2A30502D5CE7
:100158002E50800A246E3150800A2458D8B01200DC
:10016800BFD733EC05F0070E1A6E000E1B6E7F0E1C
:100178001C6E000E08EC04F022EC05F0000E506E28
:10018800000E4F6E270E216ED70E226E7F0E236E45
:10019800030E65EC04F0000E216EE30E226E7F0E56
:1001A800236E050E65EC04F03E0E216EF80E226EED
:1001B8007F0E236E050E65EC04F04B0E216EEE0EDD
:1001C800226E7F0E236E050E65EC04F0000E4C6E59
:1001D800000E4B6E4F505010D8B4FCD7000E506E26
:1001E800000E4F6EBBCF49F0BCCF4AF0380E1D6EE3
:1001F800860E1E6E350E1F6E49C047F04AC048F085
:10020800D89047364836D8904736483647C017F012
:1002180048C018F010EC05F017C01AF018C01BF011
:1002280019C01CF0D3EC01F01AC02CF01BC02DF043
:100238001CC02EF0000E296E800E2A6E3F0E2B6E0B
:100248004DEC02F029C038F02AC039F02BC03AF042
:1002580059EC01F038C04DF039C04EF04B504D18F4
:1002680004E14C504E18D8B4B5D74DC04BF04EC031
:100278004CF0050E1A6E000E1B6E7F0E1C6E050EDE
:1002880008EC04F0270E216E4DC022F04EC023F07A
:10029800050E0DEC00F04B0E216EFB0E226E7F0E4C
:1002A800236E050E65EC04F095D73AC03CF03D6A24
:1002B8003E6A39343C3601E33D803C50466E465038
:1002C800D8A409D0000E386E000E396E000E3A6EB2
:1002D800000E3B6E1200170E3C6E38C03DF039C060
:1002E8003EF03AC03FF03C28406E04D0D8903F32F0
:1002F8003E323D32402EFAD73D50416E398EFF0EC8
:100308003816FF0E3916000E3A163850426E39501C
:10031800436E3A50446E456A8E0E465E46AE16D01F
:100328004650800A8F0FD8B009D0000E386E000EE4
:10033800396E000E3A6E000E3B6E1200D8904532B0
:10034800443243324232463EF9D715D0170E46643E
:100358000FD0000E386E000E396E000E3A6E000E89
:100368003B6E1200D8904236433644364536460630
:100378004650D8A4F7D74150D8B408D0451E441EDB
:10038800431E426C000E43224422452242C038F0EC
:1003980043C039F044C03AF045C03BF012001CC0DD
:1003A80020F0216A226A1B34203601E32180205084
:1003B800236E2350D8A407D0000E1A6E000E1B6EB1
:1003C800000E1C6E12001FC020F0216A226A1E3423
:1003D800203601E321802050286E2850D8A407D069
:1003E800000E1A6E000E1B6E000E1C6E12002850B6
:1003F8007B0F23261CC028F01F50281A800E2816B1
:100408001B8E1E8EFF0E1D16FF0E1E16000E1F16CB
:10041800000E246E000E256E000E266E070E276E47
:100428001AA006D01D5024261E5025221F50262211
:10043800D8901C321B321A32D8901D361E361F3601
:10044800272EEED7090E276E1AA006D01D50242697
:100458001E5025221F502622D8901C321B321A32D9
:10046800D890263225322432272EEED724C00FF01A
:1004780025C010F026C011F023C012F028C013F0D8
:10048800C0EC02F00FC01AF010C01BF011C01CF035
:1004980012002BC02FF0306A316A2A342F3601E35C
:1004A80030802F50366E3650D8A407D0000E296EF3
:1004B800000E2A6E000E2B6E12002EC02FF0306A2E
:1004C800316A2D342F3601E330802F50376E375084
:1004D800D8A407D0000E296E000E2A6E000E2B6ECF
:1004E8001200000E336E000E346E000E356E37505B
:1004F800890F365E2BC037F02E50371A800E37160C
:100508002A8EFF0E2916FF0E2A16000E2B162D8E88
:10051800FF0E2C16FF0E2D16000E2E16180E326E1C
:10052800D8903336343635362C50295C2D502A581D
:100538002E502B58D8A007D02C50295E2D502A5A5F
:100548002E502B5A3380D89029362A362B36322E05
:10055800E7D733C00FF034C010F035C011F036C003
:1005680012F037C013F0C0EC02F00FC029F010C031
:100578002AF011C02BF012001250D8B405D00F5039
:1005880010101110D8A40CD0000E0F6E000E106EB3
:10059800000E116E1200122AD890113210320F324A
:1005A800000E0F14146E000E1014156EFE0E1114AA
:1005B800166E145015101610D8B40CD0ECD7122A99
:1005C800010E0F26000E1022000E1122D8901132B3
:1005D80010320F32000E0F14146E000E1014156E28
:1005E800FF0E1114166E145015101610D8B406D03C
:1005F800E6D71206D8900F361036113610BE03D043
:10060800020E1260F6D712A0109ED8901232125025
:1006180011121350D8A4118E0FC00FF010C010F093
:1006280011C011F012000600E9CF03F0EACF04F080
:10063800E1CF05F0E2CF06F0D9CF07F0DACF08F026
:10064800F3CF09F0F4CF0AF0F6CF0BF0F7CF0CF0A8
:10065800F8CF0DF0F5CF0EF0A0B0A1A009D0000E94
:10066800B26E000EB36EA190000E506E010E4F6E6A
:100678000EC0F5FF0DC0F8FF0CC0F7FF0BC0F6FF6A
:100688000AC0F4FF09C0F3FF08C0DAFF07C0D9FFAA
:1006980006C0E2FF05C0E1FF04C0EAFF03C0E9FFAE
:1006A80002C0FBFF01C0FAFF51921100000E146E48
:1006B80012AE06D0116C121ED8B0122A010E146E9A
:1006C80010AE06D00F6C101ED8B0102A010E141AE6
:1006D800000E166E000E156E11501210D8B41CD0F4
:1006E800010E136E04D0D89011361236132A12AEAA
:1006F800FAD7D8901536163611500F5C125010588C
:10070800D8A005D011500F5E1250105A1580D890FD
:1007180012321132132EEDD71450D8B404D0156C00
:10072800161ED8B0162A15C00FF016C010F0120009
:10073800000E146E10AE06D00F6C101ED8B0102A22
:10074800010E146E12AE04D0116C121ED8B0122A0B
:1007580011501210D8B418D0010E136E04D0D890CE
:1007680011361236132A12AEFAD711500F5C1250F6
:100778001058D8A004D011500F5E1250105AD890BB
:1007880012321132132EF1D71450D8B404D00F6C92
:10079800101ED8B0102A0FC00FF010C010F01200B1
:1007A8001C6E000E206E000E1F6E20BE06D020505C
:1007B8002AE1050E1F5CD8B01200E00E1B240F6E54
:1007C800106AFF0E1022000E126E050E116EFDEC5F
:1007D80004F01F500F2620501022E30E0F24F66E4F
:1007E8007D0E1020F76E0800F5CF1DF01A501F245B
:1007F8001E6E1EC014F01DC015F01C5037EC04F01E
:100808001F4A202AD2D71200206E20C021F0226A67
:100818001CD01BC023F0246A09D023C014F0000E9A
:10082800156E215037EC04F0234A242A1C501D6E03
:100838001E6A23501D5C1E50800A1F6E2450800AB9
:100848001F58D8B0EAD7214A222A1A501D6E1E6AAC
:1008580021501D5C1E50800A1F6E2250800A1F58AE
:10086800D8A01200D6D7166E400E146004D0000E21
:10087800186E010E03D0000E186E020E176E17C008
:1008880019F0165042EC05F01450ADEC04F0195074
:10089800E5EC04F0C00E936E1904D8B48190020EF2
:1008A8001918D8B481928196818400F0818800F06B
:1008B80015C083FF000E956E00F0819881808182BB
:1008C8001200266E000E286E000E276E16D021C06C
:1008D8001AF027502224246E28502320256E24C085
:1008E800F6FF25C0F7FF0800F5CF1BF02650D4EC23
:1008F80003F0060E2126274A282A22C00FF023C01B
:1009080010F08EEC04F00F50275C10502858D8B027
:100918001200DDD70FC013F010C014F002D0134A34
:10092800142A13C0F6FF14C0F7FF0800F550000999
:10093800D8A4F5D70FC011F010C012F0111E121E66
:10094800114A122A135011240F6E14501220106EDF
:100958001200136E400E13600CD0010E116E13506E
:100968004009CAEC04F0020E116E400ECAEC04F005
:100978001200010E116E7F0ECAEC04F0020E116E09
:100988001350C00F4009CAEC04F01200126E115047
:10099800E5EC04F0C00E936E1104D8B48190020EF9
:1009A8001118D8B481928196819400F0818800F062
:1009B80012C083FF000E956E00F0819881808182BD
:1009C8001200106E9568C00E936E1004D8B4819012
:1009D800020E1018D8B481928186819400F0818823
:1009E80000F083CF0FF081980FBEF9D78180818204
:1009F80012000F501102F3CF13F0F4CF14F00F5080
:100A08001202F350142610501102F350142613C08A
:100A18000FF014C010F0120017C00FF018C010F03B
:100A2800116A8E0E126E000E136EC0EC02F00FC02B
:100A380017F010C018F011C019F012009482BA8093
:100A4800BA92BA84BA96B18CB180B192B18EB18A99
:100A5800B188D08EF28EA080A082A2801200818AF6
:100A6800010E116E3F0ECAEC04F0020E116E3F0E1D
:100A7800CAEC04F0000E50EC05F01200136E010EE3
:100A8800116E1350B809CAEC04F0020E116E13501F
:100A9800B809CAEC04F01200136E010E116E13505F
:100AA800C009CAEC04F0020E116E1350C009CAEC5A
:100AB80004F01200506A4F6A51905192000EF86E7D
:060AC8000001B5EF00F093
:107DE20000000000000000005F0000000700070024
:107DF200147F147F14242A7F2A1223130864623604
:107E0200495522500005030000001C224100004198
:107E1200221C00082A1C2A0808083E0808005030C4
:107E2200000008080808080030300000201008048C
:107E3200023E5149453E00427F400042615149465F
:107E42002141454B311814127F1027454545393CD5
:107E52004A494930017109050336494949360649FB
:107E620049291E003636000000563600000008146C
:107E7200224114141414144122140800020151095D
:107E820006324979413E7E1111117E7F49494936B8
:107E92003E414141227F4141221C7F494949417F64
:107EA200090901013E414151327F0808087F004122
:107EB2007F41002040413F017F081422417F404022
:107EC20040407F0204027F7F0408107F3E4141410F
:107ED2003E7F090909063E4151215E7F0919294663
:107EE200464949493101017F01013F4040403F1F5E
:107EF2002040201F7F2018207F631408146303048E
:107F0200780403615149454300007F41410204085E
:107F1200102041417F000004020102044040404021
:107F220040000102040020545454787F48444438ED
:107F32003844444420384444487F38545454180840
:107F42007E090102081454543C7F0804047800445A
:107F52007D40002040443D00007F10284400417FC6
:107F620040007C041804787C0804047838444444B3
:107F7200387C14141408081414187C7C08040408AF
:107F82004854545420043F4440203C4040207C1C30
:107F92002040201C3C4030403C44281028440C50D7
:107FA20050503C4464544C44000836410000007F69
:107FB2000000004136080008082A1C08081C2A088C
:107FC200080800AA00080038383800000000000045
:107FD20000000000004652455155454E4349413A82
:107FE200004652455155454E434941004D45535572
:0D7FF2005241424C45004E4F00487A0000BD
:020000040030CA
:0E000000210C3F1EFF8181FF0FC00FE00F405B
:00000001FF
